S014000046696E616C4F6E65333238702E73726563F7
S11300000C9475000C948A000C948A000C948A0059
S11300100C948A000C948A000C948A000C948A0034
S11300200C948A000C948A000C948A000C948A0024
S11300300C948A000C948A000C948A000C948A0014
S11300400C948A000C948A000C948A000C948A0004
S11300500C948A000C948A000C948A000C948A00F4
S11300600C948A000C948A0007634236B79BD8A785
S11300701A39685618AEBAAB558C1D3CB7CC5763C9
S1130080BD6DEDFD753EF6177231BF000000803F77
S113009008000000BE922449123EABAAAA2ABECD93
S11300A0CCCC4C3E00000080BEABAAAAAA3E000005
S11300B00000BF000000803F0000000000084178FD
S11300C0D3BB4387D1133D190E3CC3BD4282AD2B34
S11300D03E68EC8276BED98FE1A93E4C80EFFFBE2C
S11300E001C4FF7F3F000000000011241FBECFEFBA
S11300F0D8E0DEBFCDBF11E0A0E0B1E0E0E4FFE076
S113010002C005900D92A037B107D9F70E941302DF
S11301100C949E070C9400009BB19F70282F207FA5
S1130120922B9BB99BB19E7F9BB99BB194609BB969
S113013035E03A95F1F700009BB19B7F9BB9EFE85E
S1130140F1E03197F1F700C000002BB1F0E18F9F8F
S1130150C0011124922F9F70892B8BB98BB18460BD
S11301608BB935E03A95F1F700008BB18B7F8BB9F1
S11301708FE39FE10197F1F700C0000008959BB160
S11301809F70282F207F922B9BB99BB191609BB9C4
S11301909BB194609BB935E03A95F1F700009BB1AF
S11301A09B7F9BB9EFE8F1E03197F1F700C00000C5
S11301B02BB1F0E18F9FC0011124922F9F70892BE6
S11301C08BB98BB184608BB935E03A95F1F70000B7
S11301D08BB18B7F8BB98FE39FE10197F1F700C05F
S11301E0000008958BB18D7F8BB98FEF8AB92FEF03
S11301F083EC99E0215080409040E1F700C000007A
S113020083E30E948C0082E30E948C0088E20E94B7
S11302108C008CE00E948C0081E00E948C008FE3B3
S11302209FE10197F1F700C0000082E80E948C0072
S11302300895CF93DF9300D0CDB7DEB790E89983CC
S113024090EC9A83E1E0F0E0EC0FFD1FE60FF11D66
S11302509081890F0E948C000F900F90DF91CF91B5
S113026008950F931F93CF938C01C0E003C00E94A5
S1130270BF00CF5FF801EC0FF11D80818111F7CF32
S1130280CF911F910F91089581E00E948C008FE31C
S11302909FE10197F1F700C00000089580E4809386
S11302A07C0087E880937A0008958770ECE7F0E09B
S11302B09081987F892B8083EAE7F0E080818064D5
S11302C0808380917A0086FDFCCF809178009091A4
S11302D0790008956150710920E030E00EC0DC011E
S11302E0A20FB31F4C91FC01E60FF71F50815C93E2
S11302F040832F5F3F4F61507109261737077CF306
S113030008950F931F93CF93DF938B019A01C0E05D
S1130310D0E00CC0F801EC0FFD1F6AE070E00E9411
S11303207607805D8083862F972F2196009791F71B
S113033006C0F801EC0FFD1F80E380832196C217ED
S1130340D307BCF3BE01C8010E946A01F801EC0F97
S1130350FD1F80E28083CE01DF91CF911F910F9129
S113036008954F925F926F927F928F929F92AF9275
S1130370BF92EF92FF920F931F93CF93DF932B01C2
S11303803C017A0189010E949C044B015C01072E07
S1130390000C880B990B0E94D4049B01AC01C3018F
S11303A0B2010E94B8032B013C0140E050E0B701C8
S11303B0C4010E948101EC010115110529F1F70125
S11303C0E80FF91F8EE28083B801012E000C880B20
S11303D0990B0E94D4049B01AC0160E070E080E2C0
S11303E091E40E94F1059B01AC01C301B2010E949A
S11303F084052196CE0DDF1D0E949C04DC01CB01F7
S1130400A801BE010E948101DF91CF911F910F913C
S1130410FF90EF90BF90AF909F908F907F906F90E0
S11304205F904F900895CF93DF93CDB7DEB7AC972D
S11304300FB6F894DEBF0FBECDBF84B1826084B91D
S113044084B1846084B90E944E010E94F20060E08D
S113045080E00E94190180E091E00E94310161E096
S113046080E00E94190180E191E00E9431012FEFA8
S113047087EA91E6215080409040E1F700C00000F7
S11304800E94440160E080E00E94190181E291E051
S11304900E94310161E080E00E9419012FEF87EA98
S11304A091E6215080409040E1F700C000000E9496
S11304B0440180E00E945501BC0180E090E00E946C
S11304C0D20428E638EE4FE95BE30E94840520E07D
S11304D030E040E250E40E94B80322E03BE247E807
S11304E05DE30E942A044B015C0181E00E945501F6
S11304F0BC0180E090E00E94D20428E638EE4FE987
S11305005BE30E94840520E030E040EC50E40E946C
S1130510840569A77AA78BA79CA79B01AC01C50199
S1130520B4010E9484056B017C0182E00E945501A4
S1130530BC0180E090E00E94D20428E638EE4FE946
S11305405BE30E94840520E030E040E250E40E9436
S1130550B80322E03BE247E85DE30E942A042B0152
S11305603C0183E00E945501BC0180E090E00E94C0
S1130570D20428E638EE4FE95BE30E94840520E0CC
S113058030E040EC50E40E9484059B01AC01C301BF
S1130590B2010E9484052B013C0160E080E00E94CE
S11305A0190182E391E00E94310122E030E0AE01C2
S11305B04F5F5F4FC501B4010E94B10160E088E064
S11305C00E941901CE0101960E94310160E08DE084
S11305D00E9419018BE391E00E9431012FEF83ED1A
S11305E090E3215080409040E1F700C0000061E0BA
S11305F080E00E9419018DE391E00E94310124E022
S113060030E0AE01455F5F4F69A57AA58BA59CA537
S11306100E94B10161E088E00E941901CE010B96AD
S11306200E94310161E08DE00E94190186E491E0AD
S11306300E9431012FEF8BE792E9215080409040D6
S1130640E1F700C000000E94440122E030E0AE0166
S11306504B5E5F4FC701B6010E94B10160E080E0CC
S11306600E9419018DE491E00E94310160E086E06E
S11306700E941901CE0145960E94310160E08CE090
S11306800E94190188E491E00E9431012FEF83ED6B
S113069090E3215080409040E1F700C0000022E048
S11306A030E0AE01415E5F4FC301B2010E94B1016F
S11306B061E080E00E9419018AE491E00E94310126
S11306C061E089E00E941901CE014F960E94310138
S11306D061E08EE00E94190188E491E00E943101FA
S11306E02FEF8BE792E9215080409040E1F700C062
S11306F000000E944401A3019201C701B6010E94B7
S113070025048823B1F060E080E00E94190184E5AB
S113071091E00E94310182E085B92FEF8BE792E9E5
S1130720215080409040E1F700C000000E94440145
S1130730C0CE60E080E00E94190184E691E00E944E
S1130740310161E080E00E9419018DE591E00E9491
S1130750310115B884E085B92FEF8BE792E9215078
S113076080409040E1F700C000000E944401A1CE07
S11307705058BB27AA270E94D0030C944A050E9414
S11307803C0538F00E94430520F039F49F3F19F4EA
S113079026F40C9439050EF4E095E7FB0C9433052C
S11307A0E92F0E945B0558F3BA17620773078407A1
S11307B0950720F079F4A6F50C947D050EF4E095E8
S11307C00B2EBA2FA02D0B01B90190010C01CA0107
S11307D0A0011124FF27591B99F0593F50F4503EB2
S11307E068F11A16F040A22F232F342F4427585FA4
S11307F0F3CF469537952795A795F0405395C9F7BC
S11308007EF41F16BA0B620B730B840BBAF0915073
S1130810A1F0FF0FBB1F661F771F881FC2F70EC012
S1130820BA0F621F731F841F48F4879577956795E5
S1130830B795F7959E3F08F0B0CF9395880F08F0D1
S11308409927EE0F9795879508950E940F0508F450
S113085081E008950E943E040C944A050E944305D9
S113086058F00E943C0540F029F45F3F29F00C94B5
S1130870330551110C947E050C9439050E945B05D7
S113088068F39923B1F3552391F3951B550BBB27BB
S1130890AA2762177307840738F09F5F5F4F220F00
S11308A0331F441FAA1FA9F335D00E2E3AF0E0E8F7
S11308B032D091505040E695001CCAF72BD0FE2F41
S11308C029D0660F771F881FBB1F261737074807D5
S11308D0AB07B0E809F0BB0B802DBF01FF2793588D
S11308E05F4F3AF09E3F510578F00C9433050C9419
S11308F07E055F3FE4F3983ED4F38695779567953C
S1130900B795F7959F5FC9F7880F911D96958795C1
S113091097F90895E1E0660F771F881FBB1F6217E0
S113092073078407BA0720F0621B730B840BBA0B9E
S1130930EE1F88F7E09508950E94A3046894B1110E
S11309400C947E0508950E94630588F09F5798F0E3
S1130950B92F9927B751B0F0E1F0660F771F881FC0
S1130960991F1AF0BA95C9F714C0B13091F00E94DA
S11309707D05B1E008950C947D05672F782F8827B5
S1130980B85F39F0B93FCCF3869577956795B39501
S1130990D9F73EF490958095709561957F4F8F4F70
S11309A09F4F0895E89409C097FB3EF49095809575
S11309B0709561957F4F8F4F9F4F9923A9F0F92F21
S11309C096E9BB279395F695879577956795B7959F
S11309D0F111F8CFFAF4BB0F11F460FF1BC06F5F85
S11309E07F4F8F4F9F4F16C0882311F096E911C097
S11309F0772321F09EE8872F762F05C0662371F0B8
S1130A0096E8862F70E060E02AF09A95660F771FCB
S1130A10881FDAF7880F9695879597F90895990FA7
S1130A200008550FAA0BE0E8FEEF16161706E807B4
S1130A30F907C0F012161306E407F50798F0621BD5
S1130A40730B840B950B39F40A2661F0232B242BAA
S1130A50252B21F408950A2609F4A140A6958FEFC9
S1130A60811D811D089597F99F6780E870E060E01B
S1130A7008959FEF80EC089500240A941616170633
S1130A8018060906089500240A941216130614067B
S1130A9005060895092E0394000C11F4882352F0DE
S1130AA0BB0F40F4BF2B11F460FF04C06F5F7F4F96
S1130AB08F4F9F4F089557FD9058440F551F59F07D
S1130AC05F3F71F04795880F97FB991F61F09F3F37
S1130AD079F087950895121613061406551FF2CF60
S1130AE04695F1DF08C0161617061806991FF1CFB0
S1130AF086957105610508940895E894BB276627D7
S1130B007727CB0197F908950E9497050C944A051D
S1130B100E943C0538F00E94430520F0952311F013
S1130B200C9433050C94390511240C947E050E9411
S1130B305B0570F3959FC1F3950F50E0551F629FBD
S1130B40F001729FBB27F00DB11D639FAA27F00D22
S1130B50B11DAA1F649F6627B00DA11D661F829F49
S1130B602227B00DA11D621F739FB00DA11D621F2E
S1130B70839FA00D611D221F749F3327A00D611D4B
S1130B80231F849F600D211D822F762F6A2F11242D
S1130B909F5750409AF0F1F088234AF0EE0FFF1F60
S1130BA0BB1F661F771F881F91505040A9F79E3FB7
S1130BB0510580F00C9433050C947E055F3FE4F3FB
S1130BC0983ED4F3869577956795B795F795E7950D
S1130BD09F5FC1F7FE2B880F911D9695879597F916
S1130BE00895FA01EE0FFF1F309621053105A1F19A
S1130BF06115710561F48038BFE39B0749F168947E
S1130C009038810561F08038BFEF9B0741F099234C
S1130C104AF5FF3FE1053105210519F1E8940894EF
S1130C20E795D901AA2329F4AB2FBE2FF85FD0F39F
S1130C3010C0FF5F70F4A695E0F7F73950F019F093
S1130C40FF3A38F49F779F930DD00F9007FC90588C
S1130C50089546F00C94390560E070E080E89FE365
S1130C6008954FE79F775F934F933F932F930E948D
S1130C70EC062F913F914F915F910E9484050C9453
S1130C80490629F416F00C9433050C947D050C9454
S1130C9039050E946305A8F39638A0F707F80F9268
S1130CA0E8942BE33AEA48EB5FE70E949A050F9237
S1130CB00F920F924DB75EB70F920E943407E8E689
S1130CC0F0E00E947B064F915F91EF91FF91E595D3
S1130CD0EE1FFF1F49F0FE57E0684427EE0F441F44
S1130CE0FA95E1F74195550B0E94AE060F9007FE69
S1130CF00C94A2060895DF93CF931F930F93FF9252
S1130D00EF92DF927B018C01689406C0DA2EEF012A
S1130D100E949705FE01E894A5912591359145918E
S1130D205591A6F3EF010E94D003FE019701A8019B
S1130D30DA9469F7DF90EF90FF900F911F91CF91B4
S1130D40DF9108959B01AC0160E070E080E89FE3CF
S1130D500C942A040C9433050C9468070E946305D0
S1130D60D8F39923C9F3940F511DA3F39150504024
S1130D7094F059F0882332F0660F771F881F915042
S1130D805040C1F79E3F51052CF7880F911D969551
S1130D90879597F908955F3FACF0983E9CF0BB2788
S1130DA0869577956795B79508F4B1609395C1F7E3
S1130DB0BB0F58F711F460FFE8CF6F5F7F4F8F4F81
S1130DC09F4FE3CF0C947E0516F00C9468070C94A7
S1130DD0390568940C9433050E946305A8F399239C
S1130DE0C1F3AEF3DF93CF931F930F93FF92C92FF9
S1130DF0DD2788232AF02197660F771F881FDAF7EB
S1130E0020E030E040E85FEB9FE3883920F0803E4B
S1130E1038F021968F770E94B903E0E9F0E004C02E
S1130E200E94B903EDEBF0E00E947B068B01BE014A
S1130E30EC01FB2E6F5771097595771F880B990B81
S1130E400E94D40428E132E741E35FE30E9497055E
S1130E50AF2D9801AE01FF900F911F91CF91DF91BB
S1130E600E94D0030C944A05FA01DC01AA0FBB1FAF
S1130E709B01AC01BF5728F422273327442750781D
S1130E8020C0B75190F4AB2F002446953795279591
S1130E90011CA395D2F3002071F0220F331F441FCD
S1130EA0B395DAF30ED00C94B80361307105A0E861
S1130EB08A07B94630F49B01AC0166277727882757
S1130EC09078309621F020833183428353830895B0
S1130ED09F3F31F0915020F4879577956795B795AA
S1130EE0880F911D9695879597F9089597FB072E7E
S1130EF016F4009407D077FD09D00E948A0707FCF6
S1130F0005D03EF4909581959F4F08957095619515
S1130F107F4F0895AA1BBB1B51E107C0AA1FBB1F2B
S1130F20A617B70710F0A61BB70B881F991F5A9571
S1130F30A9F780959095BC01CD010895F894FFCF51
S1130F402020534F4C4152202050414E454C20000C
S1130F5044414D41474520444554454354494F4E2F
S1130F6000202047524F5550204E4F203A20313711
S1130F70200043757272656E743D004100566F6CBB
S1130F80746167653D0056005700526566506F777F
S1130F9065723D0054484552452049532044414D13
S1130FA0414745005448455245204953204E4F007F
S9030000FC
